S012000063616C63756C61746F722E73726563E8
S11300000C942A000C9447000C9447000C9447006D
S11300100C9447000C9447000C9447000C94470040
S11300200C9447000C9447000C9447000C94470030
S11300300C9447000C9447000C9447000C94470020
S11300400C9447000C9447000C9447000C94470010
S11300500C94470011241FBECFE5D8E0DEBFCDBF0E
S113006010E0A0E6B0E0E8E6F5E102C005900D92EC
S1130070AC3AB107D9F710E0ACEAB0E001C01D9288
S1130080AD3AB107E1F70E9449000C94B20A0C940E
S11300900000CF93DF93CDB7DEB7C357D0400FB680
S11300A0F894DEBF0FBECDBF0E94920883E60E9483
S11300B08A07DE011196EBE6F0E080E201900D92F2
S11300C08150E1F7DE019196EBE6F0E080E20190E9
S11300D00D928150E1F7DE01AF5BBF4FEBE8F0E03A
S11300E080E101900D928150E1F780E1FE01E45A34
S11300F0FF4FDF011D928A95E9F700E010E0EE243E
S1130100FF24CC24DD24E1E4F0E0EC0FFD1F319664
S1130110E296FFAFEEAFE2972CE530E02C0F3D1FE7
S11301202E5F3F4FE4963FAF2EAFE4970F2EFAE0D9
S11301308F2E9924F02DAF968FAEAF97E0969FAE99
S1130140E09769C00E943907282F8FEF92E5A7E056
S113015081509040A040E1F700C00000822F8053FE
S11301608A3098F4812F90E0880F991FE1E0F0E045
S1130170EC0FFD1FE80FF91F822F90E0C0979183C9
S113018080830894C11CD11C45C02B3271F02D32E0
S113019061F02A3251F02F3241F02D33D9F5112379
S11301A021F11F3009F0FEC220C0812F90E0880F9A
S11301B0991FE1E0F0E0EC0FFD1FE80FF91F208329
S11301C011820894E11CF11C802F90E0880F991F84
S11301D0ACE5B0E0AC0FBD1F8A0F9B1FFC01D182C0
S11301E0C0820F5FCC24DD2415C0112311F01F3011
S11301F089F481E00E946B0880E690E00E94050982
S11302008FEF9DE3A9E481509040A040E1F700C046
S1130210000004C01F5F103108F494CFD701A00F71
S1130220B11DAE96BFAFAEAFAE97002309F4D6C0F2
S11302300F2EFCE54F2E5524F02D4C0E5D1E0F2E77
S1130240F1E2AF2EBB24F02DAC0EBD1EE2966EACD7
S11302507FACE2970150802F90E0880F991FE496BD
S11302602EAC3FACE497280E391E60E070E0DD242C
S113027000E010E0CC24C394D201ED91FD912D0156
S1130280E330F105D9F0E430F1053CF4E130F10557
S113029009F1E230F10501F50AC0E530F105A1F0FC
S11302A0E530F10574F0E630F105B1F410C0AF9615
S11302B06FADAF97E0967FADE0970EC064E670E057
S11302C00BC068EE73E008C060E177E205C060EA45
S11302D076E802C061E070E0DD2039F01E161F06EA
S11302E05CF14C2D00E010E051C01E161F060CF00E
S11302F04CC080E090E040E0880F991F21E030E09E
S11303002C0F3D1F820F931FDC018D919C9111973F
S1130310689F9001699F300D789F300D1124020F62
S1130320131FCB01B4010E948B0A4F5F842F90E00E
S11303308E179F070CF32AC081E090E04C2D00E05B
S113034010E0ED2CFF248E0D9F1D880F991F21E0D6
S113035030E02C0F3D1F820F931FDC018D919C9187
S11303601197689F9001699F300D789F300D11247B
S1130370020F131FCB01B4010E948B0A4F5F842F1D
S113038090E0E817F907FCF601C040E0D40EF5014F
S113039011830083F3013197C082ED2DF0E0EE0F5D
S11303A0FF1F21E030E02C0F3D1FE20FF31F80817F
S11303B09181D50112968C93129713969C9313975F
S11303C0F301808324E030E0A20EB31E82E090E0CB
S11303D0680E791E4214530409F04ECFAE96AEACAB
S11303E0BFACAE970894A108B108A114B10409F4F4
S11303F0DDC00FEF11E020E030E044245524320149
S1130400412F415050E0E1E4F0E0EC0FFD1FE40F18
S1130410F51F80818F3209F45CC08A3209F0BDC0B7
S1130420AE96AEADBFADAE97A217B307F0F0212FD5
S113043030E0C901880F991FE1E0F0E0EC0FFD1FE7
S1130440E80FF91F80A191A12C01662457FC609448
S1130450762C80E390E091A380A3E1E4F0E0EC0F3C
S1130460FD1FE20FF31F90E39083202F30E0C901BA
S1130470880F991FE1E0F0E0EC0FFD1FE80FF91F72
S113048080A191A16C01EE24D7FCE094FE2CA0E3A2
S1130490B0E0B1A3A0A3E1E4F0E0EC0FFD1FE20F94
S11304A0F31FB0E3B083CA01880F991F22243324B9
S11304B023942C0E3D1E280E391EC701B601A3013C
S11304C092010E946C0ADC01CB01F10191A380A38B
S11304D064C0AE968EAD9FADAE9782179307F0F0D1
S11304E0212F30E0C901880F991FE1E0F0E0EC0F03
S11304F0FD1FE80FF91F80A191A12C01662457FC70
S11305006094762CA0E3B0E0B1A3A0A3E1E4F0E012
S1130510EC0FFD1FE20FF31FB0E3B083202F30E098
S1130520C901880F991FE1E0F0E0EC0FFD1FE80F0F
S1130530F91F80A191A16C01EE24D7FCE094FE2C5C
S113054080E390E091A380A3E1E4F0E0EC0FFD1FD1
S1130550E20FF31F90E39083CA01880F991F2224AE
S1130560332423942C0E3D1E280E391EC701B601D8
S11305700E94E0096B017C01C301B2010E94E00901
S11305809B01AC01C701B6010E9445090E94AD0957
S1130590DC01CB01F10191A380A3212F30E01F5F87
S11305A00F5F2A153B0508F42BCF03C044245524C0
S11305B03201AE962EAD3FADAE972115310509F44B
S11305C0BEC05FEF41E020E030E00F2EF0E3CF2E1D
S11305D0DD24F02D0F2EF0E3EF2EF02DAE96AEAC11
S11305E0BFACAE97642F615070E0E1E4F0E0EC0F33
S11305F0FD1FE60FF71F80818D3209F44EC08B3248
S113060009F095C0A216B306D8F0242F30E0C90132
S1130610880F991FE1E0F0E0EC0FFD1FE80FF91FD0
S113062080A191A12C01662457FC6094762CD1A260
S1130630C0A2E1E4F0E0EC0FFD1FE20FF31FE08243
S1130640A52FB0E0CD01880F991FE1E0F0E0EC0F99
S1130650FD1FE80FF91F80A191A18C01222717FD2E
S11306602095322FD1A2C0A2E1E4F0E0EC0FFD1FEF
S1130670EA0FFB1FE082CB01880F991FE1E0F0E055
S1130680EC0FFD1FE80FF91FD901C801840D951D5A
S1130690A61DB71D91A380A34AC0A216B306D8F025
S11306A0242F30E0C901880F991FE1E0F0E0EC0F3E
S11306B0FD1FE80FF91F80A191A12C01662457FCAE
S11306C06094762CD1A2C0A2E1E4F0E0EC0FFD1F0F
S11306D0E20FF31FE082A52FB0E0CD01880F991F30
S11306E0E1E0F0E0EC0FFD1FE80FF91F80A191A1FC
S11306F08C01222717FD2095322FD1A2C0A2E1E45C
S1130700F0E0EC0FFD1FEA0FFB1FE082CB01880F26
S1130710991FE1E0F0E0EC0FFD1FE80FF91FD9018C
S1130720C80184199509A609B70991A380A3242FA8
S113073030E04F5F5F5F2A153B0508F453CF69A192
S11307407AA16033710589F480E08F5FE82FF0E0CF
S1130750EE0FFF1FA1E0B0E0AC0FBD1FEA0FFB1FBF
S113076060A171A16033710581F3CE018F5A9F4F4F
S11307700E94450781E00E946B08CE018F5A9F4F6B
S11307800E9405098FEF91E1AAE781509040A040B3
S1130790E1F700C0000000E010E0EE24FF24CC24C8
S11307A0DD2439CD812F90E0880F991FA1E0B0E0BE
S11307B0AC0FBD1F8A0F9B1F2DE330E0FC0131837A
S11307C020830894E11CF11C802F90E0880F991F6E
S11307D02CE530E02C0F3D1F820F931FDC01119696
S11307E0DC92CE920F5F1ACD843409F471C0853443
S11307F048F4823499F1833408F04DC0813409F00F
S113080083C00FC0823651F1833620F4813609F05B
S11308107BC007C0833609F43EC0843609F074C037
S113082057C0413069F42AB381E090E0AC0102C0C2
S1130830440F551F6A95E2F7BA01622B6ABB08950B
S11308402AB381E090E0AC0102C0440F551F6A95C1
S1130850E2F7BA01609562236ABB0895413069F4F6
S113086027B381E090E0AC0102C0440F551F6A95A4
S1130870E2F7BA01622B67BB089527B381E090E0E9
S1130880AC0102C0440F551F6A95E2F7BA016095A6
S1130890622367BB0895413069F424B381E090E09A
S11308A0AC0102C0440F551F6A95E2F7BA01622BEE
S11308B064BB089524B381E090E0AC0102C0440F0E
S11308C0551F6A95E2F7BA016095622364BB0895E7
S11308D0413069F421B381E090E0AC0102C0440FDF
S11308E0551F6A95E2F7BA01622B61BB089521B3E3
S11308F081E090E0AC0102C0440F551F6A95E2F715
S1130900BA016095622361BB0895843409F471C00F
S1130910853448F4823499F1833408F04DC081342D
S113092009F083C00FC0823651F1833620F481363A
S113093009F07BC007C0833609F43EC0843609F051
S113094074C057C0413069F42BB381E090E0AC012E
S113095002C0440F551F6A95E2F7BA01622B6BBBC4
S113096008952BB381E090E0AC0102C0440F551F01
S11309706A95E2F7BA01609562236BBB0895413032
S113098069F428B381E090E0AC0102C0440F551F24
S11309906A95E2F7BA01622B68BB089528B381E037
S11309A090E0AC0102C0440F551F6A95E2F7BA010A
S11309B06095622368BB0895413069F425B381E0F2
S11309C090E0AC0102C0440F551F6A95E2F7BA01EA
S11309D0622B65BB089525B381E090E0AC0102C0B1
S11309E0440F551F6A95E2F7BA016095622365BB0F
S11309F00895413069F422B381E090E0AC0102C073
S1130A00440F551F6A95E2F7BA01622B62BB089541
S1130A1022B381E090E0AC0102C0440F551F6A95F7
S1130A20E2F7BA016095622362BB08958434B1F1A0
S1130A30853438F48234E1F0833428F58134C1F507
S1130A400CC08236A9F0833618F4813689F505C0C6
S1130A508336C9F0843661F521C029B330E0C90179
S1130A6002C0959587956A95E2F7982F917020C0FA
S1130A7026B330E0C90102C0959587956A95E2F7DF
S1130A80982F917015C023B330E0C90102C0959529
S1130A9087956A95E2F7982F91700AC020B330E0E9
S1130AA0C90102C0959587956A95E2F7982F9170D0
S1130AB0892F0895843409F43DC0853440F4823488
S1130AC0F9F0833450F5813409F040C00CC082360B
S1130AD0B9F0833618F48136C9F505C08336E9F0D8
S1130AE08436A1F527C02BB381E090E0AC0102C0AD
S1130AF0440F551F6A95E2F7BA0162276BBB08954C
S1130B0028B381E090E0AC0102C0440F551F6A9500
S1130B10E2F7BA01622768BB089525B381E090E04B
S1130B20AC0102C0440F551F6A95E2F7BA0162276F
S1130B3065BB089522B381E090E0AC0102C0440F8C
S1130B40551F6A95E2F7BA01622762BB089584349F
S1130B50D9F0853438F4823499F0833498F48134AC
S1130B60A1F40CC0823661F0833618F4813669F43E
S1130B7005C0833639F0843641F406C06ABB089553
S1130B8067BB089564BB089561BB08958434D9F0AC
S1130B90853438F4823499F0833498F48134A1F4A0
S1130BA00CC0823661F0833618F4813669F405C0CE
S1130BB0833639F0843641F406C06BBB089568BBB4
S1130BC0089565BB089562BB08958434D9F08534D3
S1130BD038F4823499F0833498F48134A1F40CC04D
S1130BE0823661F0833618F4813669F405C08336A1
S1130BF039F0843641F406C089B3089586B3089564
S1130C0083B3089580B30895843409F1853438F4A6
S1130C108234A9F08334B8F48134E1F40CC0823610
S1130C2071F0833618F48136A9F405C0833659F07F
S1130C30843681F40CC08BB380958BBB089588B344
S1130C40809588BB089585B3809585BB089582B34C
S1130C50809582BB0895843409F480C0853448F4B7
S1130C608234C1F1833408F057C0813409F097C04D
S1130C700FC0823679F1833620F4813609F08FC0B3
S1130C8007C0833609F448C0843609F088C066C0BA
S1130C90413091F42BB381E090E0AC0102C0440FE9
S1130CA0551F6A95E2F7BA01822F842B8BBB8AB356
S1130CB0609568236ABB08952BB381E090E0AC0192
S1130CC002C0440F551F6A95E2F7BA01609562238A
S1130CD06BBB0895413091F428B381E090E0AC01FE
S1130CE002C0440F551F6A95E2F7BA01822F842B84
S1130CF088BB87B36095682367BB089528B381E0F8
S1130D0090E0AC0102C0440F551F6A95E2F7BA01A6
S1130D106095622368BB0895413091F425B381E066
S1130D2090E0AC0102C0440F551F6A95E2F7BA0186
S1130D30822F842B85BB84B36095682364BB08959C
S1130D4025B381E090E0AC0102C0440F551F6A95C1
S1130D50E2F7BA016095622365BB0895413091F4CE
S1130D6022B381E090E0AC0102C0440F551F6A95A4
S1130D70E2F7BA01822F842B82BB81B3609568238A
S1130D8061BB089522B381E090E0AC0102C0440F3E
S1130D90551F6A95E2F7BA016095622362BB089514
S1130DA06F70843451F1853438F48234C1F0833463
S1130DB0E8F4813441F50CC0823689F0833618F4A6
S1130DC0813609F505C0833689F08436E1F415C00F
S1130DD08BB3807F8BBB8BB3682B6BBB089588B3BD
S1130DE0807F88BB88B3682B68BB089585B3807FF8
S1130DF085BB85B3682B65BB089582B3807F82BBB6
S1130E0082B3682B62BB08956295607F843451F18C
S1130E10853438F48234C1F08334E8F4813441F504
S1130E200CC0823689F0833618F4813609F505C082
S1130E30833689F08436E1F415C08BB38F708BBB95
S1130E408BB3682B6BBB089588B38F7088BB88B352
S1130E50682B68BB089585B38F7085BB85B3682BF9
S1130E6065BB089582B38F7082BB82B3682B62BB6B
S1130E700895CF9383E60E94CD07C82F8F3FD1F307
S1130E800E94DE088C2FCF910895CF92DF92EF92CB
S1130E90FF920F931F93CF93DF936C01FB01309765
S1130EA061F1CB01C0E0D0E02AE030E02196B90145
S1130EB00E948B0ACB010097C9F71C161D06CCF4BF
S1130EC086010C0F1D1F20E030E00F2EFAE0EF2EFC
S1130ED0FF24F02DCF01B7010E948B0AE62FF72FD4
S1130EE0805DD8018E938D012F5F3F4F2C173D07F6
S1130EF089F7CC0DDD1D188204C080E3F6018083E0
S1130F001182DF91CF911F910F91FF90EF90DF90AD
S1130F10CF900895CF93C82F90E060E070E041E057
S1130F2050E00E94F4038C2F90E061E070E041E017
S1130F3050E00E94F4038C2F90E062E070E041E006
S1130F4050E00E94F4038C2F90E063E070E041E0F5
S1130F5050E00E94F4038C2F90E064E070E041E0E4
S1130F6050E00E942B068C2F90E065E070E041E099
S1130F7050E00E942B068C2F90E066E070E041E088
S1130F8050E00E942B068C2F90E067E070E041E077
S1130F9050E00E942B06CF9108958F929F92AF92BA
S1130FA0BF92CF92DF92EF92FF920F931F93CF9352
S1130FB0DF93CDB7DEB761970FB6F894DEBF0FBEEF
S1130FC0CDBFDE011196EBE9F0E090E101900D92C6
S1130FD09150E1F79FEF998BCC24DD24F82EEE2479
S1130FE08F2D9E2D60E070E041E050E00E9485046A
S1130FF08F2D9E2D61E070E041E050E00E94850459
S11310008F2D9E2D62E070E041E050E00E94850447
S11310108F2D9E2D63E070E041E050E00E94850436
S113102046018F2D9E2DB60140E050E00E948504BC
S113103000E010E05801B8016C5F7F4F8F2D9E2DAA
S11310400E941605882369F4F401EE0FFF1FEE0FCA
S1131050FF1FAE0EBF1EFE01EA0DFB1D8181898BB1
S113106006C00F5F1F4F0430110521F714C0898992
S113107061960FB6F894DEBF0FBECDBFDF91CF915E
S11310801F910F91FF90EF90DF90CF90BF90AF90A2
S11310909F908F9008950894C11CD11C84E0C816B9
S11310A0D10409F09DCFE3CF82E460E041E00E94E7
S11310B085048FE99FE00197F1F700C0000082E406
S11310C060E040E00E9485048FE99FE00197F1F71A
S11310D000C000000895CF93C82F682F62956F70E9
S11310E081E490E070E00E94D00682E461E040E098
S11310F00E9485040E9454088FEC97E00197F1F751
S113110000C0000081E490E06C2F70E00E94D006E3
S11311100E9454088FEC97E00197F1F700C000009B
S1131120CF91089581E460E041E00E94F40381E4FA
S113113061E041E00E94F40381E462E041E00E9446
S1131140F40381E463E041E00E94F40382E460E09C
S113115041E00E94F40382E461E041E00E94F40370
S113116082E00E946B088FE19EE40197F1F700C0D2
S1131170000088E20E946B088FEC97E00197F1F77A
S113118000C0000081E00E946B088FE19EE401979B
S1131190F1F700C0000086E00E946B088FEC97E036
S11311A00197F1F700C000008EE00E946B088FECFD
S11311B097E00197F1F700C000000895CF93C82F7E
S11311C0682F62956F7081E490E070E00E94D00611
S11311D082E461E041E00E9485040E9454088FEC9F
S11311E097E00197F1F700C0000081E490E06C2FD4
S11311F070E00E94D0060E9454088FEC97E001979B
S1131200F1F700C00000CF910895CF93DF93EC0174
S11312108881882331F021960E94DE0889918823F1
S1131220D9F78FEC97E00197F1F700C00000DF9148
S1131230CF91089581E00E946B088FE19EE40197AD
S1131240F1F700C000000895282F2150223070F4D7
S1131250662371F0613170F4813019F4962F91583E
S11312600AC0823041F4962F915405C090E803C01F
S113127090E801C090E8892F0E946B088FEC97E0FA
S11312800197F1F700C0000008950CD0EBC0E3D043
S113129040F0DAD030F021F45F3F19F0CCC05111A6
S11312A015C1CFC0F0D098F39923C9F35523B1F3F6
S11312B0951B550BBB27AA2762177307840738F0C1
S11312C09F5F5F4F220F331F441FAA1FA9F333D020
S11312D00E2E3AF0E0E830D091505040E695001CD4
S11312E0CAF729D0FE2F27D0660F771F881FBB1F90
S11312F0261737074807AB07B0E809F0BB0B802D6A
S1131300BF01FF2793585F4F2AF09E3F510568F0B5
S113131092C0DCC05F3FECF3983EDCF38695779592
S11313206795B795F7959F5FC9F7880F911D9695B7
S1131330879597F90895E1E0660F771F881FBB1F13
S1131340621773078407BA0720F0621B730B840BC0
S1131350BA0BEE1F88F7E095089504D06894B11194
S1131360B5C0089598D088F09F5790F0B92F992769
S1131370B751A0F0D1F0660F771F881F991F1AF09C
S1131380BA95C9F712C0B13081F09FD0B1E0089589
S11313909CC0672F782F8827B85F39F0B93FCCF30A
S11313A0869577956795B395D9F73EF49095809592
S11313B0709561957F4F8F4F9F4F0895E89409C0B2
S11313C097FB3EF490958095709561957F4F8F4F74
S11313D09F4F9923A9F0F92F96E9BB279395F6958A
S11313E0879577956795B795F111F8CFFAF4BB0F08
S11313F011F460FF1BC06F5F7F4F8F4F9F4F16C06C
S1131400882311F096E911C0772321F09EE8872FF5
S1131410762F05C0662371F096E8862F70E060E0B1
S11314202AF09A95660F771F881FDAF7880F96952A
S1131430879597F9089597F99F6780E870E060E0D1
S113144008959FEF80EC089500240A941616170659
S113145018060906089500240A94121613061406A1
S113146005060895092E0394000C11F4882352F004
S1131470BB0F40F4BF2B11F460FF04C06F5F7F4FBC
S11314808F4F9F4F089557FD9058440F551F59F0A3
S11314905F3F71F04795880F97FB991F61F09F3F5D
S11314A079F087950895121613061406551FF2CF86
S11314B04695F1DF08C0161617061806991FF1CFD6
S11314C086957105610508940895E894BB276627FD
S11314D07727CB0197F90895629FD001739FF0019C
S11314E0829FE00DF11D649FE00DF11D929FF00DB0
S11314F0839FF00D749FF00D659FF00D9927729FE7
S1131500B00DE11DF91F639FB00DE11DF91FBD0171
S1131510CF011124089597FB092E07260AD077FDE1
S113152004D00CD006D000201AF4709561957F4F3A
S11315300895F6F7909581959F4F0895AA1BBB1BBC
S113154051E107C0AA1FBB1FA617B70710F0A61BBF
S1131550B70B881F991F5A95A9F780959095BC01E0
S10B1560CD010895F894FFCFBA
S11315686D617468206572726F72003000300030EB
S113157800300030003000300030003000300030DF
S1131588003000300030003000300030303030306F
S113159830303030303030303030303738392F3424
S10F15A835362A3132332D41303D2B0002
S9030000FC
